:020000040000FA
:1000000083168601051085100511810101148114E4
:100010000115831205148514051507309A00183050
:100020008C0000308D0000308E00851942283B2066
:100030003B203B203B203B20851942283B203B2096
:100040003B203B203B20851942283B203B203B2086
:100050003B203B208E03FF300E0203193028152869
:100060008E0A74201A02031981286B2000300D02B9
:10007000031D61286528003081000B110B19080051
:100080009D203E2874201A02031981289D200030EB
:100090000D02031D63289D2000300C02031D6828FB
:1000A00071209D20B3209D20B3209D20B320851971
:1000B0004228152800300C02031D652000308D00F9
:1000C00015288D0315288D0351288C036E201528C3
:1000D0008C036E2051283B308E0008003B308D0091
:1000E000080000308D00080000300C02031D0034B1
:1000F00000300D02031D003400300E02031D0034D9
:1001000007340514851405150617AD200613AD2018
:100110000617051A0A280613AD200617AD2005108C
:10012000851005110613AD200617AD20051A0A2803
:100130000613AD200617AD2081280C088600051097
:10014000B3200D08051486008510B3200E08851411
:1001500086000511B32005150800003081000B1141
:100160000B1DB028080055308F008F0BB5280800F4
:00000001FF
